{
  "_format": "hh-sol-artifact-1",
  "contractName": "Upload",
  "sourceName": "contracts/Upload.sol",
  "abi": [
    {
      "inputs": [
        {
          "internalType": "address",
          "name": "_user",
          "type": "address"
        },
        {
          "internalType": "string",
          "name": "_url",
          "type": "string"
        }
      ],
      "name": "add",
      "outputs": [],
      "stateMutability": "nonpayable",
      "type": "function"
    },
    {
      "inputs": [
        {
          "internalType": "address",
          "name": "_user",
          "type": "address"
        }
      ],
      "name": "allow",
      "outputs": [],
      "stateMutability": "nonpayable",
      "type": "function"
    },
    {
      "inputs": [
        {
          "internalType": "uint256",
          "name": "id",
          "type": "uint256"
        }
      ],
      "name": "approveBuyRequest",
      "outputs": [],
      "stateMutability": "payable",
      "type": "function"
    },
    {
      "inputs": [],
      "name": "chk",
      "outputs": [
        {
          "internalType": "uint256",
          "name": "",
          "type": "uint256"
        }
      ],
      "stateMutability": "view",
      "type": "function"
    },
    {
      "inputs": [
        {
          "internalType": "address",
          "name": "_user",
          "type": "address"
        }
      ],
      "name": "disallow",
      "outputs": [],
      "stateMutability": "nonpayable",
      "type": "function"
    },
    {
      "inputs": [],
      "name": "displayAccess",
      "outputs": [
        {
          "components": [
            {
              "internalType": "address",
              "name": "user",
              "type": "address"
            },
            {
              "internalType": "bool",
              "name": "access",
              "type": "bool"
            }
          ],
          "internalType": "struct Upload.Access[]",
          "name": "",
          "type": "tuple[]"
        }
      ],
      "stateMutability": "view",
      "type": "function"
    },
    {
      "inputs": [],
      "name": "displayBuyRequests",
      "outputs": [
        {
          "components": [
            {
              "internalType": "uint256",
              "name": "id",
              "type": "uint256"
            },
            {
              "internalType": "address",
              "name": "user",
              "type": "address"
            },
            {
              "internalType": "uint256",
              "name": "dealAmount",
              "type": "uint256"
            },
            {
              "internalType": "bool",
              "name": "closed",
              "type": "bool"
            }
          ],
          "internalType": "struct Upload.buyRequest[]",
          "name": "",
          "type": "tuple[]"
        }
      ],
      "stateMutability": "view",
      "type": "function"
    },
    {
      "inputs": [
        {
          "internalType": "address",
          "name": "_user",
          "type": "address"
        }
      ],
      "name": "displayData",
      "outputs": [
        {
          "internalType": "string[]",
          "name": "",
          "type": "string[]"
        }
      ],
      "stateMutability": "view",
      "type": "function"
    },
    {
      "inputs": [
        {
          "internalType": "address",
          "name": "_user",
          "type": "address"
        }
      ],
      "name": "displayDataLength",
      "outputs": [
        {
          "internalType": "uint256",
          "name": "",
          "type": "uint256"
        }
      ],
      "stateMutability": "view",
      "type": "function"
    },
    {
      "inputs": [
        {
          "internalType": "address",
          "name": "_owner",
          "type": "address"
        }
      ],
      "name": "placeBuyRequest",
      "outputs": [],
      "stateMutability": "payable",
      "type": "function"
    }
  ],
  "bytecode": "0x608060405234801561001057600080fd5b5061229c806100206000396000f3fe6080604052600436106100915760003560e01c806394ba3b3f1161005957806394ba3b3f1461016e578063a9ed9cb8146101ab578063ac93ffed146101d4578063d81635d9146101ff578063ff9913e81461021b57610091565b8063227c1fc01461009657806336d6da55146100d357806371022459146100fc5780637c970bb814610118578063936af0d114610143575b600080fd5b3480156100a257600080fd5b506100bd60048036038101906100b89190611658565b610244565b6040516100ca919061169e565b60405180910390f35b3480156100df57600080fd5b506100fa60048036038101906100f591906117ff565b61028f565b005b61011660048036038101906101119190611658565b61030b565b005b34801561012457600080fd5b5061012d61056b565b60405161013a9190611998565b60405180910390f35b34801561014f57600080fd5b5061015861068c565b604051610165919061169e565b60405180910390f35b34801561017a57600080fd5b5061019560048036038101906101909190611658565b6106d6565b6040516101a29190611b04565b60405180910390f35b3480156101b757600080fd5b506101d260048036038101906101cd9190611658565b6108f3565b005b3480156101e057600080fd5b506101e9610bea565b6040516101f69190611c04565b60405180910390f35b61021960048036038101906102149190611c52565b610cf3565b005b34801561022757600080fd5b50610242600480360381019061023d9190611658565b611028565b005b60008060008373ffffffffffffffffffffffffffffffffffffffff1673ffffffffffffffffffffffffffffffffffffffff168152602001908152602001600020805490509050919050565b6000808373ffffffffffffffffffffffffffffffffffffffff1673ffffffffffffffffffffffffffffffffffffffff16815260200190815260200160002081908060018154018082558091505060019003906000526020600020016000909190919091509080519060200190610306929190611543565b505050565b3373ffffffffffffffffffffffffffffffffffffffff168173ffffffffffffffffffffffffffffffffffffffff16141561037a576040517f08c379a000000000000000000000000000000000000000000000000000000000815260040161037190611cdc565b60405180910390fd5b600061038582610244565b90506000662386f26fc1000060018361039e9190611d2b565b6103a89190611d81565b9050803410156103ed576040517f08c379a00000000000000000000000000000000000000000000000000000000081526004016103e490611e73565b60405180910390fd5b6000662386f26fc10000836104029190611d81565b9050600460008573ffffffffffffffffffffffffffffffffffffffff1673ffffffffffffffffffffffffffffffffffffffff1681526020019081526020016000206040518060800160405280600460008873ffffffffffffffffffffffffffffffffffffffff1673ffffffffffffffffffffffffffffffffffffffff1681526020019081526020016000208054905081526020013373ffffffffffffffffffffffffffffffffffffffff1681526020018381526020016000151581525090806001815401808255809150506001900390600052602060002090600402016000909190919091506000820151816000015560208201518160010160006101000a81548173ffffffffffffffffffffffffffffffffffffffff021916908373ffffffffffffffffffffffffffffffffffffffff1602179055506040820151816002015560608201518160030160006101000a81548160ff021916908315150217905550505050505050565b6060600460003373ffffffffffffffffffffffffffffffffffffffff1673ffffffffffffffffffffffffffffffffffffffff168152602001908152602001600020805480602002602001604051908101604052809291908181526020016000905b828210156106835783829060005260206000209060040201604051806080016040529081600082015481526020016001820160009054906101000a900473ffffffffffffffffffffffffffffffffffffffff1673ffffffffffffffffffffffffffffffffffffffff1673ffffffffffffffffffffffffffffffffffffffff168152602001600282015481526020016003820160009054906101000a900460ff161515151581525050815260200190600101906105cc565b50505050905090565b6000600260003373ffffffffffffffffffffffffffffffffffffffff1673ffffffffffffffffffffffffffffffffffffffff16815260200190815260200160002080549050905090565b60603373ffffffffffffffffffffffffffffffffffffffff168273ffffffffffffffffffffffffffffffffffffffff16148061079f575060011515600160008473ffffffffffffffffffffffffffffffffffffffff1673ffffffffffffffffffffffffffffffffffffffff16815260200190815260200160002060003373ffffffffffffffffffffffffffffffffffffffff1673ffffffffffffffffffffffffffffffffffffffff16815260200190815260200160002060009054906101000a900460ff161515145b6107de576040517f08c379a00000000000000000000000000000000000000000000000000000000081526004016107d590611edf565b60405180910390fd5b6000808373ffffffffffffffffffffffffffffffffffffffff1673ffffffffffffffffffffffffffffffffffffffff168152602001908152602001600020805480602002602001604051908101604052809291908181526020016000905b828210156108e857838290600052602060002001805461085b90611f2e565b80601f016020809104026020016040519081016040528092919081815260200182805461088790611f2e565b80156108d45780601f106108a9576101008083540402835291602001916108d4565b820191906000526020600020905b8154815290600101906020018083116108b757829003601f168201915b50505050508152602001906001019061083c565b505050509050919050565b60011515600160003373ffffffffffffffffffffffffffffffffffffffff1673ffffffffffffffffffffffffffffffffffffffff16815260200190815260200160002060008373ffffffffffffffffffffffffffffffffffffffff1673ffffffffffffffffffffffffffffffffffffffff16815260200190815260200160002060009054906101000a900460ff161515146109c3576040517f08c379a00000000000000000000000000000000000000000000000000000000081526004016109ba90611fd2565b60405180910390fd5b6000600160003373ffffffffffffffffffffffffffffffffffffffff1673ffffffffffffffffffffffffffffffffffffffff16815260200190815260200160002060008373ffffffffffffffffffffffffffffffffffffffff1673ffffffffffffffffffffffffffffffffffffffff16815260200190815260200160002060006101000a81548160ff02191690831515021790555060005b600260003373ffffffffffffffffffffffffffffffffffffffff1673ffffffffffffffffffffffffffffffffffffffff16815260200190815260200160002080549050811015610be6578173ffffffffffffffffffffffffffffffffffffffff16600260003373ffffffffffffffffffffffffffffffffffffffff1673ffffffffffffffffffffffffffffffffffffffff1681526020019081526020016000208281548110610b0d57610b0c611ff2565b5b9060005260206000200160000160009054906101000a900473ffffffffffffffffffffffffffffffffffffffff1673ffffffffffffffffffffffffffffffffffffffff161415610bd3576000600260003373ffffffffffffffffffffffffffffffffffffffff1673ffffffffffffffffffffffffffffffffffffffff1681526020019081526020016000208281548110610baa57610ba9611ff2565b5b9060005260206000200160000160146101000a81548160ff021916908315150217905550610be6565b8080610bde90612021565b915050610a5b565b5050565b6060600260003373ffffffffffffffffffffffffffffffffffffffff1673ffffffffffffffffffffffffffffffffffffffff168152602001908152602001600020805480602002602001604051908101604052809291908181526020016000905b82821015610cea578382906000526020600020016040518060400160405290816000820160009054906101000a900473ffffffffffffffffffffffffffffffffffffffff1673ffffffffffffffffffffffffffffffffffffffff1673ffffffffffffffffffffffffffffffffffffffff1681526020016000820160149054906101000a900460ff16151515158152505081526020019060010190610c4b565b50505050905090565b600460003373ffffffffffffffffffffffffffffffffffffffff1673ffffffffffffffffffffffffffffffffffffffff168152602001908152602001600020805490508110610d77576040517f08c379a0000000000000000000000000000000000000000000000000000000008152600401610d6e906120dc565b60405180910390fd5b60001515600460003373ffffffffffffffffffffffffffffffffffffffff1673ffffffffffffffffffffffffffffffffffffffff1681526020019081526020016000208281548110610dcc57610dcb611ff2565b5b906000526020600020906004020160030160009054906101000a900460ff16151514610e2d576040517f08c379a0000000000000000000000000000000000000000000000000000000008152600401610e2490612148565b60405180910390fd5b6000600460003373ffffffffffffffffffffffffffffffffffffffff1673ffffffffffffffffffffffffffffffffffffffff1681526020019081526020016000208281548110610e8057610e7f611ff2565b5b906000526020600020906004020160020154905080471015610ed7576040517f08c379a0000000000000000000000000000000000000000000000000000000008152600401610ece906121b4565b60405180910390fd5b610f62600460003373ffffffffffffffffffffffffffffffffffffffff1673ffffffffffffffffffffffffffffffffffffffff1681526020019081526020016000208381548110610f2b57610f2a611ff2565b5b906000526020600020906004020160010160009054906101000a900473ffffffffffffffffffffffffffffffffffffffff16611028565b3373ffffffffffffffffffffffffffffffffffffffff166108fc829081150290604051600060405180830381858888f19350505050158015610fa8573d6000803e3d6000fd5b506001600460003373ffffffffffffffffffffffffffffffffffffffff1673ffffffffffffffffffffffffffffffffffffffff1681526020019081526020016000208381548110610ffc57610ffb611ff2565b5b906000526020600020906004020160030160006101000a81548160ff0219169083151502179055505050565b60001515600160003373ffffffffffffffffffffffffffffffffffffffff1673ffffffffffffffffffffffffffffffffffffffff16815260200190815260200160002060008373ffffffffffffffffffffffffffffffffffffffff1673ffffffffffffffffffffffffffffffffffffffff16815260200190815260200160002060009054906101000a900460ff161515146110f8576040517f08c379a00000000000000000000000000000000000000000000000000000000081526004016110ef90612246565b60405180910390fd5b60018060003373ffffffffffffffffffffffffffffffffffffffff1673ffffffffffffffffffffffffffffffffffffffff16815260200190815260200160002060008373ffffffffffffffffffffffffffffffffffffffff1673ffffffffffffffffffffffffffffffffffffffff16815260200190815260200160002060006101000a81548160ff021916908315150217905550600360003373ffffffffffffffffffffffffffffffffffffffff1673ffffffffffffffffffffffffffffffffffffffff16815260200190815260200160002060008273ffffffffffffffffffffffffffffffffffffffff1673ffffffffffffffffffffffffffffffffffffffff16815260200190815260200160002060009054906101000a900460ff16156113af5760005b600260003373ffffffffffffffffffffffffffffffffffffffff1673ffffffffffffffffffffffffffffffffffffffff168152602001908152602001600020805490508110156113a9578173ffffffffffffffffffffffffffffffffffffffff16600260003373ffffffffffffffffffffffffffffffffffffffff1673ffffffffffffffffffffffffffffffffffffffff16815260200190815260200160002082815481106112d0576112cf611ff2565b5b9060005260206000200160000160009054906101000a900473ffffffffffffffffffffffffffffffffffffffff1673ffffffffffffffffffffffffffffffffffffffff161415611396576001600260003373ffffffffffffffffffffffffffffffffffffffff1673ffffffffffffffffffffffffffffffffffffffff168152602001908152602001600020828154811061136d5761136c611ff2565b5b9060005260206000200160000160146101000a81548160ff0219169083151502179055506113a9565b80806113a190612021565b91505061121e565b50611540565b600260003373ffffffffffffffffffffffffffffffffffffffff1673ffffffffffffffffffffffffffffffffffffffff16815260200190815260200160002060405180604001604052808373ffffffffffffffffffffffffffffffffffffffff168152602001600115158152509080600181540180825580915050600190039060005260206000200160009091909190915060008201518160000160006101000a81548173ffffffffffffffffffffffffffffffffffffffff021916908373ffffffffffffffffffffffffffffffffffffffff16021790555060208201518160000160146101000a81548160ff02191690831515021790555050506001600360003373ffffffffffffffffffffffffffffffffffffffff1673ffffffffffffffffffffffffffffffffffffffff16815260200190815260200160002060008373ffffffffffffffffffffffffffffffffffffffff1673ffffffffffffffffffffffffffffffffffffffff16815260200190815260200160002060006101000a81548160ff0219169083151502179055505b50565b82805461154f90611f2e565b90600052602060002090601f01602090048101928261157157600085556115b8565b82601f1061158a57805160ff19168380011785556115b8565b828001600101855582156115b8579182015b828111156115b757825182559160200191906001019061159c565b5b5090506115c591906115c9565b5090565b5b808211156115e25760008160009055506001016115ca565b5090565b6000604051905090565b600080fd5b600080fd5b600073ffffffffffffffffffffffffffffffffffffffff82169050919050565b6000611625826115fa565b9050919050565b6116358161161a565b811461164057600080fd5b50565b6000813590506116528161162c565b92915050565b60006020828403121561166e5761166d6115f0565b5b600061167c84828501611643565b91505092915050565b6000819050919050565b61169881611685565b82525050565b60006020820190506116b3600083018461168f565b92915050565b600080fd5b600080fd5b6000601f19601f8301169050919050565b7f4e487b7100000000000000000000000000000000000000000000000000000000600052604160045260246000fd5b61170c826116c3565b810181811067ffffffffffffffff8211171561172b5761172a6116d4565b5b80604052505050565b600061173e6115e6565b905061174a8282611703565b919050565b600067ffffffffffffffff82111561176a576117696116d4565b5b611773826116c3565b9050602081019050919050565b82818337600083830152505050565b60006117a261179d8461174f565b611734565b9050828152602081018484840111156117be576117bd6116be565b5b6117c9848285611780565b509392505050565b600082601f8301126117e6576117e56116b9565b5b81356117f684826020860161178f565b91505092915050565b60008060408385031215611816576118156115f0565b5b600061182485828601611643565b925050602083013567ffffffffffffffff811115611845576118446115f5565b5b611851858286016117d1565b9150509250929050565b600081519050919050565b600082825260208201905092915050565b6000819050602082019050919050565b61189081611685565b82525050565b61189f8161161a565b82525050565b60008115159050919050565b6118ba816118a5565b82525050565b6080820160008201516118d66000850182611887565b5060208201516118e96020850182611896565b5060408201516118fc6040850182611887565b50606082015161190f60608501826118b1565b50505050565b600061192183836118c0565b60808301905092915050565b6000602082019050919050565b60006119458261185b565b61194f8185611866565b935061195a83611877565b8060005b8381101561198b5781516119728882611915565b975061197d8361192d565b92505060018101905061195e565b5085935050505092915050565b600060208201905081810360008301526119b2818461193a565b905092915050565b600081519050919050565b600082825260208201905092915050565b6000819050602082019050919050565b600081519050919050565b600082825260208201905092915050565b60005b83811015611a20578082015181840152602081019050611a05565b83811115611a2f576000848401525b50505050565b6000611a40826119e6565b611a4a81856119f1565b9350611a5a818560208601611a02565b611a63816116c3565b840191505092915050565b6000611a7a8383611a35565b905092915050565b6000602082019050919050565b6000611a9a826119ba565b611aa481856119c5565b935083602082028501611ab6856119d6565b8060005b85811015611af25784840389528151611ad38582611a6e565b9450611ade83611a82565b925060208a01995050600181019050611aba565b50829750879550505050505092915050565b60006020820190508181036000830152611b1e8184611a8f565b905092915050565b600081519050919050565b600082825260208201905092915050565b6000819050602082019050919050565b604082016000820151611b686000850182611896565b506020820151611b7b60208501826118b1565b50505050565b6000611b8d8383611b52565b60408301905092915050565b6000602082019050919050565b6000611bb182611b26565b611bbb8185611b31565b9350611bc683611b42565b8060005b83811015611bf7578151611bde8882611b81565b9750611be983611b99565b925050600181019050611bca565b5085935050505092915050565b60006020820190508181036000830152611c1e8184611ba6565b905092915050565b611c2f81611685565b8114611c3a57600080fd5b50565b600081359050611c4c81611c26565b92915050565b600060208284031215611c6857611c676115f0565b5b6000611c7684828501611c3d565b91505092915050565b600082825260208201905092915050565b7f7265717565737465722063616e7420626520746865206f776e65720000000000600082015250565b6000611cc6601b83611c7f565b9150611cd182611c90565b602082019050919050565b60006020820190508181036000830152611cf581611cb9565b9050919050565b7f4e487b7100000000000000000000000000000000000000000000000000000000600052601160045260246000fd5b6000611d3682611685565b9150611d4183611685565b9250827fffffffffffffffffffffffffffffffffffffffffffffffffffffffffffffffff03821115611d7657611d75611cfc565b5b828201905092915050565b6000611d8c82611685565b9150611d9783611685565b9250817fffffffffffffffffffffffffffffffffffffffffffffffffffffffffffffffff0483118215151615611dd057611dcf611cfc565b5b828202905092915050565b7f74686520616d6f756e74206f66206574682073656e7420776974682066756e6360008201527f74696f6e2063616c6c2073686f756c642062652067726561746572207468616e60208201527f2074686520636f7374206f662070757263686173650000000000000000000000604082015250565b6000611e5d605583611c7f565b9150611e6882611ddb565b606082019050919050565b60006020820190508181036000830152611e8c81611e50565b9050919050565b7f596f7520646f6e27742068617665206163636573730000000000000000000000600082015250565b6000611ec9601583611c7f565b9150611ed482611e93565b602082019050919050565b60006020820190508181036000830152611ef881611ebc565b9050919050565b7f4e487b7100000000000000000000000000000000000000000000000000000000600052602260045260246000fd5b60006002820490506001821680611f4657607f821691505b60208210811415611f5a57611f59611eff565b5b50919050565b7f7573657220697320616c72656479206e6f7420616c6c6f77656420746f20616360008201527f6365737320646174610000000000000000000000000000000000000000000000602082015250565b6000611fbc602983611c7f565b9150611fc782611f60565b604082019050919050565b60006020820190508181036000830152611feb81611faf565b9050919050565b7f4e487b7100000000000000000000000000000000000000000000000000000000600052603260045260246000fd5b600061202c82611685565b91507fffffffffffffffffffffffffffffffffffffffffffffffffffffffffffffffff82141561205f5761205e611cfc565b5b600182019050919050565b7f746865206665746368656420627579207265717565737420646f65736e206e6f60008201527f7420657869737400000000000000000000000000000000000000000000000000602082015250565b60006120c6602783611c7f565b91506120d18261206a565b604082019050919050565b600060208201905081810360008301526120f5816120b9565b9050919050565b7f627579207265717565737420616c726561647920617070726f76656400000000600082015250565b6000612132601c83611c7f565b915061213d826120fc565b602082019050919050565b6000602082019050818103600083015261216181612125565b9050919050565b7f436f6e74726163742062616c616e636520697320696e73756666696369656e74600082015250565b600061219e602083611c7f565b91506121a982612168565b602082019050919050565b600060208201905081810360008301526121cd81612191565b9050919050565b7f7573657220697320616c7265647920616c6c6f77656420746f2061636365737360008201527f2064617461000000000000000000000000000000000000000000000000000000602082015250565b6000612230602583611c7f565b915061223b826121d4565b604082019050919050565b6000602082019050818103600083015261225f81612223565b905091905056fea264697066735822122062e556a075e499ea9344328fd8b4fac41217c5db9b5578d64981d727059f774964736f6c63430008090033",
  "linkReferences": {},
  "deployedLinkReferences": {}
}