{
  "_format": "hh-sol-artifact-1",
  "contractName": "Upload",
  "sourceName": "contracts/Upload.sol",
  "abi": [
    {
      "inputs": [
        {
          "internalType": "address",
          "name": "_user",
          "type": "address"
        },
        {
          "internalType": "string",
          "name": "_url",
          "type": "string"
        }
      ],
      "name": "add",
      "outputs": [],
      "stateMutability": "nonpayable",
      "type": "function"
    },
    {
      "inputs": [
        {
          "internalType": "address",
          "name": "_user",
          "type": "address"
        }
      ],
      "name": "allow",
      "outputs": [],
      "stateMutability": "nonpayable",
      "type": "function"
    },
    {
      "inputs": [
        {
          "internalType": "uint256",
          "name": "id",
          "type": "uint256"
        }
      ],
      "name": "approveBuyRequest",
      "outputs": [],
      "stateMutability": "payable",
      "type": "function"
    },
    {
      "inputs": [],
      "name": "chk",
      "outputs": [
        {
          "internalType": "uint256",
          "name": "",
          "type": "uint256"
        }
      ],
      "stateMutability": "view",
      "type": "function"
    },
    {
      "inputs": [
        {
          "internalType": "address",
          "name": "_user",
          "type": "address"
        }
      ],
      "name": "disallow",
      "outputs": [],
      "stateMutability": "nonpayable",
      "type": "function"
    },
    {
      "inputs": [],
      "name": "displayAccess",
      "outputs": [
        {
          "components": [
            {
              "internalType": "address",
              "name": "user",
              "type": "address"
            },
            {
              "internalType": "bool",
              "name": "access",
              "type": "bool"
            }
          ],
          "internalType": "struct Upload.Access[]",
          "name": "",
          "type": "tuple[]"
        }
      ],
      "stateMutability": "view",
      "type": "function"
    },
    {
      "inputs": [],
      "name": "displayBuyRequests",
      "outputs": [
        {
          "components": [
            {
              "internalType": "uint256",
              "name": "id",
              "type": "uint256"
            },
            {
              "internalType": "address",
              "name": "user",
              "type": "address"
            },
            {
              "internalType": "uint256",
              "name": "dealAmount",
              "type": "uint256"
            },
            {
              "internalType": "bool",
              "name": "closed",
              "type": "bool"
            }
          ],
          "internalType": "struct Upload.buyRequest[]",
          "name": "",
          "type": "tuple[]"
        }
      ],
      "stateMutability": "view",
      "type": "function"
    },
    {
      "inputs": [
        {
          "internalType": "address",
          "name": "_user",
          "type": "address"
        }
      ],
      "name": "displayData",
      "outputs": [
        {
          "internalType": "string[]",
          "name": "",
          "type": "string[]"
        }
      ],
      "stateMutability": "view",
      "type": "function"
    },
    {
      "inputs": [
        {
          "internalType": "address",
          "name": "_user",
          "type": "address"
        }
      ],
      "name": "displayDataLength",
      "outputs": [
        {
          "internalType": "uint256",
          "name": "",
          "type": "uint256"
        }
      ],
      "stateMutability": "view",
      "type": "function"
    },
    {
      "inputs": [],
      "name": "displayUsers",
      "outputs": [
        {
          "components": [
            {
              "internalType": "address",
              "name": "add",
              "type": "address"
            },
            {
              "internalType": "uint256",
              "name": "id",
              "type": "uint256"
            },
            {
              "internalType": "uint256",
              "name": "lenOfData",
              "type": "uint256"
            }
          ],
          "internalType": "struct Upload.User[]",
          "name": "",
          "type": "tuple[]"
        }
      ],
      "stateMutability": "view",
      "type": "function"
    },
    {
      "inputs": [
        {
          "internalType": "address",
          "name": "_owner",
          "type": "address"
        }
      ],
      "name": "placeBuyRequest",
      "outputs": [],
      "stateMutability": "payable",
      "type": "function"
    }
  ],
  "bytecode": "0x6080604052600060015534801561001557600080fd5b50612710806100256000396000f3fe60806040526004361061009c5760003560e01c806394ba3b3f1161006457806394ba3b3f14610179578063a9ed9cb8146101b6578063ac93ffed146101df578063d81635d91461020a578063e1df1fa614610226578063ff9913e8146102515761009c565b8063227c1fc0146100a157806336d6da55146100de57806371022459146101075780637c970bb814610123578063936af0d11461014e575b600080fd5b3480156100ad57600080fd5b506100c860048036038101906100c391906119b9565b61027a565b6040516100d591906119ff565b60405180910390f35b3480156100ea57600080fd5b5061010560048036038101906101009190611b60565b6102c6565b005b610121600480360381019061011c91906119b9565b6105a1565b005b34801561012f57600080fd5b50610138610801565b6040516101459190611cf9565b60405180910390f35b34801561015a57600080fd5b50610163610922565b60405161017091906119ff565b60405180910390f35b34801561018557600080fd5b506101a0600480360381019061019b91906119b9565b61096c565b6040516101ad9190611e65565b60405180910390f35b3480156101c257600080fd5b506101dd60048036038101906101d891906119b9565b610b8a565b005b3480156101eb57600080fd5b506101f4610e81565b6040516102019190611f65565b60405180910390f35b610224600480360381019061021f9190611fb3565b610f8a565b005b34801561023257600080fd5b5061023b6112bf565b60405161024891906120d1565b60405180910390f35b34801561025d57600080fd5b50610278600480360381019061027391906119b9565b611388565b005b6000600360008373ffffffffffffffffffffffffffffffffffffffff1673ffffffffffffffffffffffffffffffffffffffff168152602001908152602001600020805490509050919050565b6000600360008473ffffffffffffffffffffffffffffffffffffffff1673ffffffffffffffffffffffffffffffffffffffff1681526020019081526020016000208054905014156104a957600154600260008473ffffffffffffffffffffffffffffffffffffffff1673ffffffffffffffffffffffffffffffffffffffff16815260200190815260200160002081905550600360008373ffffffffffffffffffffffffffffffffffffffff1673ffffffffffffffffffffffffffffffffffffffff168152602001908152602001600020819080600181540180825580915050600190039060005260206000200160009091909190915090805190602001906103cf9291906118a4565b50600060405180606001604052808473ffffffffffffffffffffffffffffffffffffffff16815260200160015481526020016001815250908060018154018082558091505060019003906000526020600020906003020160009091909190915060008201518160000160006101000a81548173ffffffffffffffffffffffffffffffffffffffff021916908373ffffffffffffffffffffffffffffffffffffffff160217905550602082015181600101556040820151816002015550506001600081548092919061049f90612122565b919050555061059d565b600360008373ffffffffffffffffffffffffffffffffffffffff1673ffffffffffffffffffffffffffffffffffffffff168152602001908152602001600020819080600181540180825580915050600190039060005260206000200160009091909190915090805190602001906105219291906118a4565b506000600260008473ffffffffffffffffffffffffffffffffffffffff1673ffffffffffffffffffffffffffffffffffffffff16815260200190815260200160002054815481106105755761057461216b565b5b9060005260206000209060030201600201600081548092919061059790612122565b91905055505b5050565b3373ffffffffffffffffffffffffffffffffffffffff168173ffffffffffffffffffffffffffffffffffffffff161415610610576040517f08c379a0000000000000000000000000000000000000000000000000000000008152600401610607906121f7565b60405180910390fd5b600061061b8261027a565b90506000662386f26fc100006001836106349190612217565b61063e919061226d565b905080341015610683576040517f08c379a000000000000000000000000000000000000000000000000000000000815260040161067a9061235f565b60405180910390fd5b6000662386f26fc1000083610698919061226d565b9050600760008573ffffffffffffffffffffffffffffffffffffffff1673ffffffffffffffffffffffffffffffffffffffff1681526020019081526020016000206040518060800160405280600760008873ffffffffffffffffffffffffffffffffffffffff1673ffffffffffffffffffffffffffffffffffffffff1681526020019081526020016000208054905081526020013373ffffffffffffffffffffffffffffffffffffffff1681526020018381526020016000151581525090806001815401808255809150506001900390600052602060002090600402016000909190919091506000820151816000015560208201518160010160006101000a81548173ffffffffffffffffffffffffffffffffffffffff021916908373ffffffffffffffffffffffffffffffffffffffff1602179055506040820151816002015560608201518160030160006101000a81548160ff021916908315150217905550505050505050565b6060600760003373ffffffffffffffffffffffffffffffffffffffff1673ffffffffffffffffffffffffffffffffffffffff168152602001908152602001600020805480602002602001604051908101604052809291908181526020016000905b828210156109195783829060005260206000209060040201604051806080016040529081600082015481526020016001820160009054906101000a900473ffffffffffffffffffffffffffffffffffffffff1673ffffffffffffffffffffffffffffffffffffffff1673ffffffffffffffffffffffffffffffffffffffff168152602001600282015481526020016003820160009054906101000a900460ff16151515158152505081526020019060010190610862565b50505050905090565b6000600560003373ffffffffffffffffffffffffffffffffffffffff1673ffffffffffffffffffffffffffffffffffffffff16815260200190815260200160002080549050905090565b60603373ffffffffffffffffffffffffffffffffffffffff168273ffffffffffffffffffffffffffffffffffffffff161480610a35575060011515600460008473ffffffffffffffffffffffffffffffffffffffff1673ffffffffffffffffffffffffffffffffffffffff16815260200190815260200160002060003373ffffffffffffffffffffffffffffffffffffffff1673ffffffffffffffffffffffffffffffffffffffff16815260200190815260200160002060009054906101000a900460ff161515145b610a74576040517f08c379a0000000000000000000000000000000000000000000000000000000008152600401610a6b906123cb565b60405180910390fd5b600360008373ffffffffffffffffffffffffffffffffffffffff1673ffffffffffffffffffffffffffffffffffffffff168152602001908152602001600020805480602002602001604051908101604052809291908181526020016000905b82821015610b7f578382906000526020600020018054610af29061241a565b80601f0160208091040260200160405190810160405280929190818152602001828054610b1e9061241a565b8015610b6b5780601f10610b4057610100808354040283529160200191610b6b565b820191906000526020600020905b815481529060010190602001808311610b4e57829003601f168201915b505050505081526020019060010190610ad3565b505050509050919050565b60011515600460003373ffffffffffffffffffffffffffffffffffffffff1673ffffffffffffffffffffffffffffffffffffffff16815260200190815260200160002060008373ffffffffffffffffffffffffffffffffffffffff1673ffffffffffffffffffffffffffffffffffffffff16815260200190815260200160002060009054906101000a900460ff16151514610c5a576040517f08c379a0000000000000000000000000000000000000000000000000000000008152600401610c51906124be565b60405180910390fd5b6000600460003373ffffffffffffffffffffffffffffffffffffffff1673ffffffffffffffffffffffffffffffffffffffff16815260200190815260200160002060008373ffffffffffffffffffffffffffffffffffffffff1673ffffffffffffffffffffffffffffffffffffffff16815260200190815260200160002060006101000a81548160ff02191690831515021790555060005b600560003373ffffffffffffffffffffffffffffffffffffffff1673ffffffffffffffffffffffffffffffffffffffff16815260200190815260200160002080549050811015610e7d578173ffffffffffffffffffffffffffffffffffffffff16600560003373ffffffffffffffffffffffffffffffffffffffff1673ffffffffffffffffffffffffffffffffffffffff1681526020019081526020016000208281548110610da457610da361216b565b5b9060005260206000200160000160009054906101000a900473ffffffffffffffffffffffffffffffffffffffff1673ffffffffffffffffffffffffffffffffffffffff161415610e6a576000600560003373ffffffffffffffffffffffffffffffffffffffff1673ffffffffffffffffffffffffffffffffffffffff1681526020019081526020016000208281548110610e4157610e4061216b565b5b9060005260206000200160000160146101000a81548160ff021916908315150217905550610e7d565b8080610e7590612122565b915050610cf2565b5050565b6060600560003373ffffffffffffffffffffffffffffffffffffffff1673ffffffffffffffffffffffffffffffffffffffff168152602001908152602001600020805480602002602001604051908101604052809291908181526020016000905b82821015610f81578382906000526020600020016040518060400160405290816000820160009054906101000a900473ffffffffffffffffffffffffffffffffffffffff1673ffffffffffffffffffffffffffffffffffffffff1673ffffffffffffffffffffffffffffffffffffffff1681526020016000820160149054906101000a900460ff16151515158152505081526020019060010190610ee2565b50505050905090565b600760003373ffffffffffffffffffffffffffffffffffffffff1673ffffffffffffffffffffffffffffffffffffffff16815260200190815260200160002080549050811061100e576040517f08c379a000000000000000000000000000000000000000000000000000000000815260040161100590612550565b60405180910390fd5b60001515600760003373ffffffffffffffffffffffffffffffffffffffff1673ffffffffffffffffffffffffffffffffffffffff16815260200190815260200160002082815481106110635761106261216b565b5b906000526020600020906004020160030160009054906101000a900460ff161515146110c4576040517f08c379a00000000000000000000000000000000000000000000000000000000081526004016110bb906125bc565b60405180910390fd5b6000600760003373ffffffffffffffffffffffffffffffffffffffff1673ffffffffffffffffffffffffffffffffffffffff16815260200190815260200160002082815481106111175761111661216b565b5b90600052602060002090600402016002015490508047101561116e576040517f08c379a000000000000000000000000000000000000000000000000000000000815260040161116590612628565b60405180910390fd5b6111f9600760003373ffffffffffffffffffffffffffffffffffffffff1673ffffffffffffffffffffffffffffffffffffffff16815260200190815260200160002083815481106111c2576111c161216b565b5b906000526020600020906004020160010160009054906101000a900473ffffffffffffffffffffffffffffffffffffffff16611388565b3373ffffffffffffffffffffffffffffffffffffffff166108fc829081150290604051600060405180830381858888f1935050505015801561123f573d6000803e3d6000fd5b506001600760003373ffffffffffffffffffffffffffffffffffffffff1673ffffffffffffffffffffffffffffffffffffffff16815260200190815260200160002083815481106112935761129261216b565b5b906000526020600020906004020160030160006101000a81548160ff0219169083151502179055505050565b60606000805480602002602001604051908101604052809291908181526020016000905b8282101561137f57838290600052602060002090600302016040518060600160405290816000820160009054906101000a900473ffffffffffffffffffffffffffffffffffffffff1673ffffffffffffffffffffffffffffffffffffffff1673ffffffffffffffffffffffffffffffffffffffff16815260200160018201548152602001600282015481525050815260200190600101906112e3565b50505050905090565b60001515600460003373ffffffffffffffffffffffffffffffffffffffff1673ffffffffffffffffffffffffffffffffffffffff16815260200190815260200160002060008373ffffffffffffffffffffffffffffffffffffffff1673ffffffffffffffffffffffffffffffffffffffff16815260200190815260200160002060009054906101000a900460ff16151514611458576040517f08c379a000000000000000000000000000000000000000000000000000000000815260040161144f906126ba565b60405180910390fd5b6001600460003373ffffffffffffffffffffffffffffffffffffffff1673ffffffffffffffffffffffffffffffffffffffff16815260200190815260200160002060008373ffffffffffffffffffffffffffffffffffffffff1673ffffffffffffffffffffffffffffffffffffffff16815260200190815260200160002060006101000a81548160ff021916908315150217905550600660003373ffffffffffffffffffffffffffffffffffffffff1673ffffffffffffffffffffffffffffffffffffffff16815260200190815260200160002060008273ffffffffffffffffffffffffffffffffffffffff1673ffffffffffffffffffffffffffffffffffffffff16815260200190815260200160002060009054906101000a900460ff16156117105760005b600560003373ffffffffffffffffffffffffffffffffffffffff1673ffffffffffffffffffffffffffffffffffffffff1681526020019081526020016000208054905081101561170a578173ffffffffffffffffffffffffffffffffffffffff16600560003373ffffffffffffffffffffffffffffffffffffffff1673ffffffffffffffffffffffffffffffffffffffff16815260200190815260200160002082815481106116315761163061216b565b5b9060005260206000200160000160009054906101000a900473ffffffffffffffffffffffffffffffffffffffff1673ffffffffffffffffffffffffffffffffffffffff1614156116f7576001600560003373ffffffffffffffffffffffffffffffffffffffff1673ffffffffffffffffffffffffffffffffffffffff16815260200190815260200160002082815481106116ce576116cd61216b565b5b9060005260206000200160000160146101000a81548160ff02191690831515021790555061170a565b808061170290612122565b91505061157f565b506118a1565b600560003373ffffffffffffffffffffffffffffffffffffffff1673ffffffffffffffffffffffffffffffffffffffff16815260200190815260200160002060405180604001604052808373ffffffffffffffffffffffffffffffffffffffff168152602001600115158152509080600181540180825580915050600190039060005260206000200160009091909190915060008201518160000160006101000a81548173ffffffffffffffffffffffffffffffffffffffff021916908373ffffffffffffffffffffffffffffffffffffffff16021790555060208201518160000160146101000a81548160ff02191690831515021790555050506001600660003373ffffffffffffffffffffffffffffffffffffffff1673ffffffffffffffffffffffffffffffffffffffff16815260200190815260200160002060008373ffffffffffffffffffffffffffffffffffffffff1673ffffffffffffffffffffffffffffffffffffffff16815260200190815260200160002060006101000a81548160ff0219169083151502179055505b50565b8280546118b09061241a565b90600052602060002090601f0160209004810192826118d25760008555611919565b82601f106118eb57805160ff1916838001178555611919565b82800160010185558215611919579182015b828111156119185782518255916020019190600101906118fd565b5b509050611926919061192a565b5090565b5b8082111561194357600081600090555060010161192b565b5090565b6000604051905090565b600080fd5b600080fd5b600073ffffffffffffffffffffffffffffffffffffffff82169050919050565b60006119868261195b565b9050919050565b6119968161197b565b81146119a157600080fd5b50565b6000813590506119b38161198d565b92915050565b6000602082840312156119cf576119ce611951565b5b60006119dd848285016119a4565b91505092915050565b6000819050919050565b6119f9816119e6565b82525050565b6000602082019050611a1460008301846119f0565b92915050565b600080fd5b600080fd5b6000601f19601f8301169050919050565b7f4e487b7100000000000000000000000000000000000000000000000000000000600052604160045260246000fd5b611a6d82611a24565b810181811067ffffffffffffffff82111715611a8c57611a8b611a35565b5b80604052505050565b6000611a9f611947565b9050611aab8282611a64565b919050565b600067ffffffffffffffff821115611acb57611aca611a35565b5b611ad482611a24565b9050602081019050919050565b82818337600083830152505050565b6000611b03611afe84611ab0565b611a95565b905082815260208101848484011115611b1f57611b1e611a1f565b5b611b2a848285611ae1565b509392505050565b600082601f830112611b4757611b46611a1a565b5b8135611b57848260208601611af0565b91505092915050565b60008060408385031215611b7757611b76611951565b5b6000611b85858286016119a4565b925050602083013567ffffffffffffffff811115611ba657611ba5611956565b5b611bb285828601611b32565b9150509250929050565b600081519050919050565b600082825260208201905092915050565b6000819050602082019050919050565b611bf1816119e6565b82525050565b611c008161197b565b82525050565b60008115159050919050565b611c1b81611c06565b82525050565b608082016000820151611c376000850182611be8565b506020820151611c4a6020850182611bf7565b506040820151611c5d6040850182611be8565b506060820151611c706060850182611c12565b50505050565b6000611c828383611c21565b60808301905092915050565b6000602082019050919050565b6000611ca682611bbc565b611cb08185611bc7565b9350611cbb83611bd8565b8060005b83811015611cec578151611cd38882611c76565b9750611cde83611c8e565b925050600181019050611cbf565b5085935050505092915050565b60006020820190508181036000830152611d138184611c9b565b905092915050565b600081519050919050565b600082825260208201905092915050565b6000819050602082019050919050565b600081519050919050565b600082825260208201905092915050565b60005b83811015611d81578082015181840152602081019050611d66565b83811115611d90576000848401525b50505050565b6000611da182611d47565b611dab8185611d52565b9350611dbb818560208601611d63565b611dc481611a24565b840191505092915050565b6000611ddb8383611d96565b905092915050565b6000602082019050919050565b6000611dfb82611d1b565b611e058185611d26565b935083602082028501611e1785611d37565b8060005b85811015611e535784840389528151611e348582611dcf565b9450611e3f83611de3565b925060208a01995050600181019050611e1b565b50829750879550505050505092915050565b60006020820190508181036000830152611e7f8184611df0565b905092915050565b600081519050919050565b600082825260208201905092915050565b6000819050602082019050919050565b604082016000820151611ec96000850182611bf7565b506020820151611edc6020850182611c12565b50505050565b6000611eee8383611eb3565b60408301905092915050565b6000602082019050919050565b6000611f1282611e87565b611f1c8185611e92565b9350611f2783611ea3565b8060005b83811015611f58578151611f3f8882611ee2565b9750611f4a83611efa565b925050600181019050611f2b565b5085935050505092915050565b60006020820190508181036000830152611f7f8184611f07565b905092915050565b611f90816119e6565b8114611f9b57600080fd5b50565b600081359050611fad81611f87565b92915050565b600060208284031215611fc957611fc8611951565b5b6000611fd784828501611f9e565b91505092915050565b600081519050919050565b600082825260208201905092915050565b6000819050602082019050919050565b6060820160008201516120226000850182611bf7565b5060208201516120356020850182611be8565b5060408201516120486040850182611be8565b50505050565b600061205a838361200c565b60608301905092915050565b6000602082019050919050565b600061207e82611fe0565b6120888185611feb565b935061209383611ffc565b8060005b838110156120c45781516120ab888261204e565b97506120b683612066565b925050600181019050612097565b5085935050505092915050565b600060208201905081810360008301526120eb8184612073565b905092915050565b7f4e487b7100000000000000000000000000000000000000000000000000000000600052601160045260246000fd5b600061212d826119e6565b91507fffffffffffffffffffffffffffffffffffffffffffffffffffffffffffffffff8214156121605761215f6120f3565b5b600182019050919050565b7f4e487b7100000000000000000000000000000000000000000000000000000000600052603260045260246000fd5b600082825260208201905092915050565b7f7265717565737465722063616e7420626520746865206f776e65720000000000600082015250565b60006121e1601b8361219a565b91506121ec826121ab565b602082019050919050565b60006020820190508181036000830152612210816121d4565b9050919050565b6000612222826119e6565b915061222d836119e6565b9250827fffffffffffffffffffffffffffffffffffffffffffffffffffffffffffffffff03821115612262576122616120f3565b5b828201905092915050565b6000612278826119e6565b9150612283836119e6565b9250817fffffffffffffffffffffffffffffffffffffffffffffffffffffffffffffffff04831182151516156122bc576122bb6120f3565b5b828202905092915050565b7f74686520616d6f756e74206f66206574682073656e7420776974682066756e6360008201527f74696f6e2063616c6c2073686f756c642062652067726561746572207468616e60208201527f2074686520636f7374206f662070757263686173650000000000000000000000604082015250565b600061234960558361219a565b9150612354826122c7565b606082019050919050565b600060208201905081810360008301526123788161233c565b9050919050565b7f596f7520646f6e27742068617665206163636573730000000000000000000000600082015250565b60006123b560158361219a565b91506123c08261237f565b602082019050919050565b600060208201905081810360008301526123e4816123a8565b9050919050565b7f4e487b7100000000000000000000000000000000000000000000000000000000600052602260045260246000fd5b6000600282049050600182168061243257607f821691505b60208210811415612446576124456123eb565b5b50919050565b7f7573657220697320616c72656479206e6f7420616c6c6f77656420746f20616360008201527f6365737320646174610000000000000000000000000000000000000000000000602082015250565b60006124a860298361219a565b91506124b38261244c565b604082019050919050565b600060208201905081810360008301526124d78161249b565b9050919050565b7f746865206665746368656420627579207265717565737420646f65736e206e6f60008201527f7420657869737400000000000000000000000000000000000000000000000000602082015250565b600061253a60278361219a565b9150612545826124de565b604082019050919050565b600060208201905081810360008301526125698161252d565b9050919050565b7f627579207265717565737420616c726561647920617070726f76656400000000600082015250565b60006125a6601c8361219a565b91506125b182612570565b602082019050919050565b600060208201905081810360008301526125d581612599565b9050919050565b7f436f6e74726163742062616c616e636520697320696e73756666696369656e74600082015250565b600061261260208361219a565b915061261d826125dc565b602082019050919050565b6000602082019050818103600083015261264181612605565b9050919050565b7f7573657220697320616c7265647920616c6c6f77656420746f2061636365737360008201527f2064617461000000000000000000000000000000000000000000000000000000602082015250565b60006126a460258361219a565b91506126af82612648565b604082019050919050565b600060208201905081810360008301526126d381612697565b905091905056fea2646970667358221220d871cf16da05e13ac713ef73f2371b779f49cb347d24a35d3bcca06de195bcb264736f6c63430008090033",
  "linkReferences": {},
  "deployedLinkReferences": {}
}